{
  "transactions": [
    {
      "hash": "0x61b2d1d1632e1231d611ef784e27e8b403bc2dff76dc3a40fcac3281bb8febc9",
      "transactionType": "CALL",
      "contractName": "VRFCoordinatorV2",
      "contractAddress": "0x8103B0A8A00be2DDC778e6e7eaa21791Cd364625",
      "function": "createSubscription():(uint64)",
      "arguments": [],
      "transaction": {
        "type": "0x02",
        "from": "0x18132857e8ba171bfb8c61739ace664391b2b960",
        "to": "0x8103b0a8a00be2ddc778e6e7eaa21791cd364625",
        "gas": "0x1558c",
        "value": "0x0",
        "data": "0xa21a23e4",
        "nonce": "0x28",
        "accessList": []
      },
      "additionalContracts": [],
      "isFixedGasLimit": false
    },
    {
      "hash": "0xc1cbb125ec6257d927bb6654ee11a0e06dce10b4002ae43a19c669f6f6e45ac2",
      "transactionType": "CALL",
      "contractName": "LinkToken",
      "contractAddress": "0x779877A7B0D9E8603169DdbD7836e478b4624789",
      "function": "transferAndCall(address,uint256,bytes):(bool)",
      "arguments": [
        "0x8103B0A8A00be2DDC778e6e7eaa21791Cd364625",
        "3000000000000000000",
        "0x0000000000000000000000000000000000000000000000000000000000002e5b"
      ],
      "transaction": {
        "type": "0x02",
        "from": "0x18132857e8ba171bfb8c61739ace664391b2b960",
        "to": "0x779877a7b0d9e8603169ddbd7836e478b4624789",
        "gas": "0x1b43f",
        "value": "0x0",
        "data": "0x4000aea00000000000000000000000008103b0a8a00be2ddc778e6e7eaa21791cd36462500000000000000000000000000000000000000000000000029a2241af62c0000000000000000000000000000000000000000000000000000000000000000006000000000000000000000000000000000000000000000000000000000000000200000000000000000000000000000000000000000000000000000000000002e5b",
        "nonce": "0x29",
        "accessList": []
      },
      "additionalContracts": [],
      "isFixedGasLimit": false
    },
    {
      "hash": "0x4291f282c7ced1542efacd964257390f5fb6f830c8615f5a337a1d49e9add8ce",
      "transactionType": "CREATE",
      "contractName": "Raffle",
      "contractAddress": "0xD7Cc019A825DD012dbc76e7D5469c9A40d66Dda2",
      "function": null,
      "arguments": [
        "10000000000000000",
        "30",
        "0x8103B0A8A00be2DDC778e6e7eaa21791Cd364625",
        "0x474e34a077df58807dbe9c96d3c009b23b3c6d0cce433e59bbf5b34f823bc56c",
        "11867",
        "500000"
      ],
      "transaction": {
        "type": "0x02",
        "from": "0x18132857e8ba171bfb8c61739ace664391b2b960",
        "gas": "0xde7ce",
        "value": "0x0",
        "data": "0x61016060405234801561001157600080fd5b50604051610cae380380610cae83398101604081905261003091610087565b6001600160a01b0393909316608081905260a09590955260c09390935260e093909352610100929092526001600160401b03166101205263ffffffff16610140526002805460ff60a01b1916905542600155610112565b60008060008060008060c087890312156100a057600080fd5b86516020880151604089015191975095506001600160a01b03811681146100c657600080fd5b6060880151608089015191955093506001600160401b03811681146100ea57600080fd5b60a088015190925063ffffffff8116811461010457600080fd5b809150509295509295509295565b60805160a05160c05160e051610100516101205161014051610b35610179600039600061043d01526000610406015260006103e00152600061047b0152600061052401526000818160a501526102820152600081816101fe01526102400152610b356000f3fe6080604052600436106100915760003560e01c8063473f1ddc11610059578063473f1ddc146101495780636e04ff0d1461017b578063a430ff12146101a9578063cd61386d146101be578063e55ae4e8146101d357600080fd5b806309bc33a714610096578063115cbaf5146100d85780631fe543e3146100ff5780632cfcc539146101215780634585e33b14610129575b600080fd5b3480156100a257600080fd5b507f00000000000000000000000000000000000000000000000000000000000000005b6040519081526020015b60405180910390f35b3480156100e457600080fd5b50600254600160a01b900460ff166040516100cf91906107e5565b34801561010b57600080fd5b5061011f61011a366004610840565b6101f3565b005b61011f610280565b34801561013557600080fd5b5061011f6101443660046108f2565b61036b565b34801561015557600080fd5b506002546001600160a01b03165b6040516001600160a01b0390911681526020016100cf565b34801561018757600080fd5b5061019b610196366004610964565b61051c565b6040516100cf9291906109f9565b3480156101b557600080fd5b506001546100c5565b3480156101ca57600080fd5b506000546100c5565b3480156101df57600080fd5b506101636101ee366004610a51565b6105c7565b336001600160a01b037f000000000000000000000000000000000000000000000000000000000000000016146102725760405163073e64fd60e21b81523360048201526001600160a01b037f00000000000000000000000000000000000000000000000000000000000000001660248201526044015b60405180910390fd5b61027c82826105f6565b5050565b7f00000000000000000000000000000000000000000000000000000000000000003410156102c15760405163246b904d60e01b815260040160405180910390fd5b6000600254600160a01b900460ff1660018111156102e1576102e16107ad565b146102ff5760405163349289c560e21b815260040160405180910390fd5b600080546001810182558180527f290decd9548b62a8d60345a988386fc84ba6bc95484008f6362f93160ef3e5630180546001600160a01b0319163390811790915560405190917f819fbd717c9d0b421352c5116a644ca68ba176960c33f406f08d98a27370ca2791a2565b60006103856040518060200160405280600081525061051c565b509050806103bc57600054600254604051630ed41b5d60e21b81526102699247929091600160a01b90910460ff1690600401610a6a565b60028054600160a01b60ff60a01b199091161790556040516305d3b1d360e41b81527f000000000000000000000000000000000000000000000000000000000000000060048201527f000000000000000000000000000000000000000000000000000000000000000067ffffffffffffffff166024820152600360448201527f000000000000000000000000000000000000000000000000000000000000000063ffffffff166064820152600160848201526000906001600160a01b037f00000000000000000000000000000000000000000000000000000000000000001690635d3b1d309060a4016020604051808303816000875af11580156104c4573d6000803e3d6000fd5b505050506040513d601f19601f820116820180604052508101906104e89190610a8d565b60405190915081907fcd6e45c8998311cab7e9d4385596cac867e20a0587194b954fa3a731c93ce78b90600090a250505050565b6000606060007f0000000000000000000000000000000000000000000000000000000000000000600154426105519190610aa6565b10159050600080600254600160a01b900460ff166001811115610576576105766107ad565b6000549114915047151590151583801561058d5750825b80156105965750815b801561059f5750805b60408051808201909152600381526203078360ec1b6020820152909890975095505050505050565b60008082815481106105db576105db610ac7565b6000918252602090912001546001600160a01b031692915050565b6000805482518390839061060c5761060c610ac7565b602002602001015161061e9190610add565b9050600080828154811061063457610634610ac7565b600091825260208083209190910154600280546001600160a81b0319166001600160a01b0390921691821790556040805184815292830190819052915190935061067f929190610733565b50426001556040516001600160a01b038216907fb112587e57bfa970257f3d54fc52859c6300f6bd7a982462c320fed45c2530ed90600090a26000816001600160a01b03164760405160006040518083038185875af1925050503d8060008114610705576040519150601f19603f3d011682016040523d82523d6000602084013e61070a565b606091505b505090508061072c5760405163a1d04b3960e01b815260040160405180910390fd5b5050505050565b828054828255906000526020600020908101928215610788579160200282015b8281111561078857825182546001600160a01b0319166001600160a01b03909116178255602090920191600190910190610753565b50610794929150610798565b5090565b5b808211156107945760008155600101610799565b634e487b7160e01b600052602160045260246000fd5b600281106107e157634e487b7160e01b600052602160045260246000fd5b9052565b602081016107f382846107c3565b92915050565b634e487b7160e01b600052604160045260246000fd5b604051601f8201601f1916810167ffffffffffffffff81118282101715610838576108386107f9565b604052919050565b6000806040838503121561085357600080fd5b8235915060208084013567ffffffffffffffff8082111561087357600080fd5b818601915086601f83011261088757600080fd5b813581811115610899576108996107f9565b8060051b91506108aa84830161080f565b81815291830184019184810190898411156108c457600080fd5b938501935b838510156108e2578435825293850193908501906108c9565b8096505050505050509250929050565b6000806020838503121561090557600080fd5b823567ffffffffffffffff8082111561091d57600080fd5b818501915085601f83011261093157600080fd5b81358181111561094057600080fd5b86602082850101111561095257600080fd5b60209290920196919550909350505050565b6000602080838503121561097757600080fd5b823567ffffffffffffffff8082111561098f57600080fd5b818501915085601f8301126109a357600080fd5b8135818111156109b5576109b56107f9565b6109c7601f8201601f1916850161080f565b915080825286848285010111156109dd57600080fd5b8084840185840137600090820190930192909252509392505050565b821515815260006020604081840152835180604085015260005b81811015610a2f57858101830151858201606001528201610a13565b506000606082860101526060601f19601f830116850101925050509392505050565b600060208284031215610a6357600080fd5b5035919050565b8381526020810183905260608101610a8560408301846107c3565b949350505050565b600060208284031215610a9f57600080fd5b5051919050565b818103818111156107f357634e487b7160e01b600052601160045260246000fd5b634e487b7160e01b600052603260045260246000fd5b600082610afa57634e487b7160e01b600052601260045260246000fd5b50069056fea2646970667358221220419fb3d58f261f294d813cf1ac0a649ef6aafe0f9b794c2d172eac98efdc33db64736f6c63430008140033000000000000000000000000000000000000000000000000002386f26fc10000000000000000000000000000000000000000000000000000000000000000001e0000000000000000000000008103b0a8a00be2ddc778e6e7eaa21791cd364625474e34a077df58807dbe9c96d3c009b23b3c6d0cce433e59bbf5b34f823bc56c0000000000000000000000000000000000000000000000000000000000002e5b000000000000000000000000000000000000000000000000000000000007a120",
        "nonce": "0x2a",
        "accessList": []
      },
      "additionalContracts": [],
      "isFixedGasLimit": false
    },
    {
      "hash": "0xea9678f0a50cce0962e24c64565789df21ce8fce70149ff64b027238d99a0261",
      "transactionType": "CALL",
      "contractName": "VRFCoordinatorV2",
      "contractAddress": "0x8103B0A8A00be2DDC778e6e7eaa21791Cd364625",
      "function": "addConsumer(uint64,address)",
      "arguments": [
        "11867",
        "0xD7Cc019A825DD012dbc76e7D5469c9A40d66Dda2"
      ],
      "transaction": {
        "type": "0x02",
        "from": "0x18132857e8ba171bfb8c61739ace664391b2b960",
        "to": "0x8103b0a8a00be2ddc778e6e7eaa21791cd364625",
        "gas": "0x21eb0",
        "value": "0x0",
        "data": "0x7341c10c0000000000000000000000000000000000000000000000000000000000002e5b000000000000000000000000d7cc019a825dd012dbc76e7d5469c9a40d66dda2",
        "nonce": "0x2b",
        "accessList": []
      },
      "additionalContracts": [],
      "isFixedGasLimit": false
    }
  ],
  "receipts": [
    {
      "transactionHash": "0x61b2d1d1632e1231d611ef784e27e8b403bc2dff76dc3a40fcac3281bb8febc9",
      "transactionIndex": "0x3",
      "blockHash": "0x69c1189c644e0960b6142ad1c3778b094881833f6e5aac5534e928c6ab4c9f8c",
      "blockNumber": "0x5c5e69",
      "from": "0x18132857E8ba171BFB8C61739aCe664391B2b960",
      "to": "0x8103B0A8A00be2DDC778e6e7eaa21791Cd364625",
      "cumulativeGasUsed": "0x4682a",
      "gasUsed": "0xe98a",
      "contractAddress": null,
      "logs": [
        {
          "address": "0x8103B0A8A00be2DDC778e6e7eaa21791Cd364625",
          "topics": [
            "0x464722b4166576d3dcbba877b999bc35cf911f4eaf434b7eba68fa113951d0bf",
            "0x0000000000000000000000000000000000000000000000000000000000002e5b"
          ],
          "data": "0x00000000000000000000000018132857e8ba171bfb8c61739ace664391b2b960",
          "blockHash": "0x69c1189c644e0960b6142ad1c3778b094881833f6e5aac5534e928c6ab4c9f8c",
          "blockNumber": "0x5c5e69",
          "transactionHash": "0x61b2d1d1632e1231d611ef784e27e8b403bc2dff76dc3a40fcac3281bb8febc9",
          "transactionIndex": "0x3",
          "logIndex": "0x5",
          "removed": false
        }
      ],
      "status": "0x1",
      "logsBloom": "0x0000000000000000000001000000000000000000000000010000000000000000010000000000000000000000000000000000000000000000000000000000000000000000000000000000000000000000000000000000000000000000000000000000000000001000000000000000000000000000000000000000000000000000000000400c000020000000000000000000000000000000000000000000000000000000000000000000000000000000000000000000000000000000000000000000000000000000200000000000000000000000000000000000000000000000000000000000000000000000000000000000000000000000000000000000000000",
      "type": "0x2",
      "effectiveGasPrice": "0xb4be3554"
    },
    {
      "transactionHash": "0xc1cbb125ec6257d927bb6654ee11a0e06dce10b4002ae43a19c669f6f6e45ac2",
      "transactionIndex": "0x4",
      "blockHash": "0x69c1189c644e0960b6142ad1c3778b094881833f6e5aac5534e928c6ab4c9f8c",
      "blockNumber": "0x5c5e69",
      "from": "0x18132857E8ba171BFB8C61739aCe664391B2b960",
      "to": "0x779877A7B0D9E8603169DdbD7836e478b4624789",
      "cumulativeGasUsed": "0x59274",
      "gasUsed": "0x12a4a",
      "contractAddress": null,
      "logs": [
        {
          "address": "0x779877A7B0D9E8603169DdbD7836e478b4624789",
          "topics": [
            "0xddf252ad1be2c89b69c2b068fc378daa952ba7f163c4a11628f55a4df523b3ef",
            "0x00000000000000000000000018132857e8ba171bfb8c61739ace664391b2b960",
            "0x0000000000000000000000008103b0a8a00be2ddc778e6e7eaa21791cd364625"
          ],
          "data": "0x00000000000000000000000000000000000000000000000029a2241af62c0000",
          "blockHash": "0x69c1189c644e0960b6142ad1c3778b094881833f6e5aac5534e928c6ab4c9f8c",
          "blockNumber": "0x5c5e69",
          "transactionHash": "0xc1cbb125ec6257d927bb6654ee11a0e06dce10b4002ae43a19c669f6f6e45ac2",
          "transactionIndex": "0x4",
          "logIndex": "0x6",
          "removed": false
        },
        {
          "address": "0x779877A7B0D9E8603169DdbD7836e478b4624789",
          "topics": [
            "0xe19260aff97b920c7df27010903aeb9c8d2be5d310a2c67824cf3f15396e4c16",
            "0x00000000000000000000000018132857e8ba171bfb8c61739ace664391b2b960",
            "0x0000000000000000000000008103b0a8a00be2ddc778e6e7eaa21791cd364625"
          ],
          "data": "0x00000000000000000000000000000000000000000000000029a2241af62c0000000000000000000000000000000000000000000000000000000000000000004000000000000000000000000000000000000000000000000000000000000000200000000000000000000000000000000000000000000000000000000000002e5b",
          "blockHash": "0x69c1189c644e0960b6142ad1c3778b094881833f6e5aac5534e928c6ab4c9f8c",
          "blockNumber": "0x5c5e69",
          "transactionHash": "0xc1cbb125ec6257d927bb6654ee11a0e06dce10b4002ae43a19c669f6f6e45ac2",
          "transactionIndex": "0x4",
          "logIndex": "0x7",
          "removed": false
        },
        {
          "address": "0x8103B0A8A00be2DDC778e6e7eaa21791Cd364625",
          "topics": [
            "0xd39ec07f4e209f627a4c427971473820dc129761ba28de8906bd56f57101d4f8",
            "0x0000000000000000000000000000000000000000000000000000000000002e5b"
          ],
          "data": "0x000000000000000000000000000000000000000000000000000000000000000000000000000000000000000000000000000000000000000029a2241af62c0000",
          "blockHash": "0x69c1189c644e0960b6142ad1c3778b094881833f6e5aac5534e928c6ab4c9f8c",
          "blockNumber": "0x5c5e69",
          "transactionHash": "0xc1cbb125ec6257d927bb6654ee11a0e06dce10b4002ae43a19c669f6f6e45ac2",
          "transactionIndex": "0x4",
          "logIndex": "0x8",
          "removed": false
        }
      ],
      "status": "0x1",
      "logsBloom": "0x0000001400000000000000000000000000000000000000030000000002000000040000000000800000000000000000000000000000000000000000000000000000000000004000000000000800000000000000000000000000002000000000000000000000001000000000000000000000000000400000000000001000000000000000400c000020000000000000800010000020000000000000000000000000000000000000000000000000000000000000000000000000000400000000000000000002001000000000000000000000000000000000000100000000000000000000000000000000000000000000000000000000000000000000000000000000",
      "type": "0x2",
      "effectiveGasPrice": "0xb4be3554"
    },
    {
      "transactionHash": "0x4291f282c7ced1542efacd964257390f5fb6f830c8615f5a337a1d49e9add8ce",
      "transactionIndex": "0x5",
      "blockHash": "0x69c1189c644e0960b6142ad1c3778b094881833f6e5aac5534e928c6ab4c9f8c",
      "blockNumber": "0x5c5e69",
      "from": "0x18132857E8ba171BFB8C61739aCe664391B2b960",
      "to": null,
      "cumulativeGasUsed": "0x10459c",
      "gasUsed": "0xab328",
      "contractAddress": "0xD7Cc019A825DD012dbc76e7D5469c9A40d66Dda2",
      "logs": [],
      "status": "0x1",
      "logsBloom": "0x00000000000000000000000000000000000000000000000000000000000000000000000000000000000000000000000000000000000000000000000000000000000000000000000000000000000000000000000000000000000000000000000000000000000000000000000000000000000000000000000000000000000000000000000000000000000000000000000000000000000000000000000000000000000000000000000000000000000000000000000000000000000000000000000000000000000000000000000000000000000000000000000000000000000000000000000000000000000000000000000000000000000000000000000000000000",
      "type": "0x2",
      "effectiveGasPrice": "0xb4be3554"
    },
    {
      "transactionHash": "0xea9678f0a50cce0962e24c64565789df21ce8fce70149ff64b027238d99a0261",
      "transactionIndex": "0x6",
      "blockHash": "0x69c1189c644e0960b6142ad1c3778b094881833f6e5aac5534e928c6ab4c9f8c",
      "blockNumber": "0x5c5e69",
      "from": "0x18132857E8ba171BFB8C61739aCe664391B2b960",
      "to": "0x8103B0A8A00be2DDC778e6e7eaa21791Cd364625",
      "cumulativeGasUsed": "0x11b8ae",
      "gasUsed": "0x17312",
      "contractAddress": null,
      "logs": [
        {
          "address": "0x8103B0A8A00be2DDC778e6e7eaa21791Cd364625",
          "topics": [
            "0x43dc749a04ac8fb825cbd514f7c0e13f13bc6f2ee66043b76629d51776cff8e0",
            "0x0000000000000000000000000000000000000000000000000000000000002e5b"
          ],
          "data": "0x000000000000000000000000d7cc019a825dd012dbc76e7d5469c9a40d66dda2",
          "blockHash": "0x69c1189c644e0960b6142ad1c3778b094881833f6e5aac5534e928c6ab4c9f8c",
          "blockNumber": "0x5c5e69",
          "transactionHash": "0xea9678f0a50cce0962e24c64565789df21ce8fce70149ff64b027238d99a0261",
          "transactionIndex": "0x6",
          "logIndex": "0x9",
          "removed": false
        }
      ],
      "status": "0x1",
      "logsBloom": "0x0000000000000000000000000000000000000000000000010000000000000000000000000000000000000000000000000000000000000000000000000000000000000000000000000000000000000000000000000000000000000000000000000000000000009000000000000000000000000000000000000000000000000000000000400c000020000000000000000000000000000000000000000000000000000000000000000000000080000000000000000000000000000000000000000000000000000000000000000000000000000000000000000000020000000000000000000000000000000000000000000000000000000000000000000000000000",
      "type": "0x2",
      "effectiveGasPrice": "0xb4be3554"
    }
  ],
  "libraries": [],
  "pending": [],
  "returns": {
    "0": {
      "internal_type": "contract Raffle",
      "value": "0xD7Cc019A825DD012dbc76e7D5469c9A40d66Dda2"
    },
    "1": {
      "internal_type": "contract HelperConfig",
      "value": "0xC7f2Cf4845C6db0e1a1e91ED41Bcd0FcC1b0E141"
    }
  },
  "timestamp": 1717706590,
  "chain": 11155111,
  "multi": false,
  "commit": "9289d82"
}